{
  "_format": "hh-sol-artifact-1",
  "contractName": "ERC721",
  "sourceName": "contracts/token/ERC721/ERC721.sol",
  "abi": [
    {
      "inputs": [
        {
          "internalType": "address",
          "name": "_owner",
          "type": "address"
        },
        {
          "internalType": "uint256",
          "name": "_maxSupply",
          "type": "uint256"
        },
        {
          "internalType": "string",
          "name": "_name",
          "type": "string"
        }
      ],
      "stateMutability": "nonpayable",
      "type": "constructor"
    },
    {
      "inputs": [],
      "name": "getLastTokenId",
      "outputs": [
        {
          "internalType": "uint256",
          "name": "",
          "type": "uint256"
        }
      ],
      "stateMutability": "view",
      "type": "function"
    },
    {
      "inputs": [],
      "name": "getList",
      "outputs": [
        {
          "internalType": "uint256[]",
          "name": "",
          "type": "uint256[]"
        }
      ],
      "stateMutability": "view",
      "type": "function"
    },
    {
      "inputs": [],
      "name": "getName",
      "outputs": [
        {
          "internalType": "string",
          "name": "",
          "type": "string"
        }
      ],
      "stateMutability": "view",
      "type": "function"
    },
    {
      "inputs": [
        {
          "internalType": "address",
          "name": "_user",
          "type": "address"
        }
      ],
      "name": "getOwnerByToken",
      "outputs": [
        {
          "internalType": "uint256",
          "name": "",
          "type": "uint256"
        }
      ],
      "stateMutability": "view",
      "type": "function"
    },
    {
      "inputs": [],
      "name": "getSymbol",
      "outputs": [
        {
          "internalType": "string",
          "name": "",
          "type": "string"
        }
      ],
      "stateMutability": "view",
      "type": "function"
    },
    {
      "inputs": [
        {
          "internalType": "uint256",
          "name": "_tokenId",
          "type": "uint256"
        }
      ],
      "name": "getTokenByOwner",
      "outputs": [
        {
          "internalType": "address",
          "name": "",
          "type": "address"
        }
      ],
      "stateMutability": "view",
      "type": "function"
    },
    {
      "inputs": [
        {
          "internalType": "uint256",
          "name": "_tokenId",
          "type": "uint256"
        }
      ],
      "name": "getTokenURI",
      "outputs": [
        {
          "internalType": "string",
          "name": "",
          "type": "string"
        }
      ],
      "stateMutability": "view",
      "type": "function"
    },
    {
      "inputs": [],
      "name": "lastIdx",
      "outputs": [
        {
          "internalType": "uint256",
          "name": "",
          "type": "uint256"
        }
      ],
      "stateMutability": "view",
      "type": "function"
    },
    {
      "inputs": [
        {
          "internalType": "uint256",
          "name": "",
          "type": "uint256"
        }
      ],
      "name": "lists",
      "outputs": [
        {
          "internalType": "uint256",
          "name": "",
          "type": "uint256"
        }
      ],
      "stateMutability": "view",
      "type": "function"
    },
    {
      "inputs": [
        {
          "internalType": "address",
          "name": "_user",
          "type": "address"
        }
      ],
      "name": "mint",
      "outputs": [
        {
          "internalType": "uint256",
          "name": "",
          "type": "uint256"
        }
      ],
      "stateMutability": "nonpayable",
      "type": "function"
    },
    {
      "inputs": [
        {
          "internalType": "uint256",
          "name": "_tokenId",
          "type": "uint256"
        }
      ],
      "name": "removeList",
      "outputs": [
        {
          "internalType": "bool",
          "name": "",
          "type": "bool"
        }
      ],
      "stateMutability": "nonpayable",
      "type": "function"
    },
    {
      "inputs": [
        {
          "internalType": "uint256",
          "name": "_tokenId",
          "type": "uint256"
        },
        {
          "internalType": "uint256",
          "name": "_price",
          "type": "uint256"
        }
      ],
      "name": "setList",
      "outputs": [
        {
          "internalType": "bool",
          "name": "",
          "type": "bool"
        }
      ],
      "stateMutability": "nonpayable",
      "type": "function"
    },
    {
      "inputs": [
        {
          "internalType": "uint256",
          "name": "_tokenId",
          "type": "uint256"
        },
        {
          "internalType": "address",
          "name": "_user",
          "type": "address"
        }
      ],
      "name": "transfer",
      "outputs": [
        {
          "internalType": "bool",
          "name": "",
          "type": "bool"
        },
        {
          "internalType": "uint256",
          "name": "",
          "type": "uint256"
        },
        {
          "internalType": "address",
          "name": "",
          "type": "address"
        }
      ],
      "stateMutability": "nonpayable",
      "type": "function"
    }
  ],
  "bytecode": "0x60806040523480156200001157600080fd5b5060405162001b6d38038062001b6d83398181016040528101906200003791906200031b565b826000806101000a81548173ffffffffffffffffffffffffffffffffffffffff021916908373ffffffffffffffffffffffffffffffffffffffff1602179055508160018190555080600290816200008f9190620005d7565b506040518060400160405280600481526020017f564f54450000000000000000000000000000000000000000000000000000000081525060039081620000d69190620005d7565b506000600481905550505050620006be565b6000604051905090565b600080fd5b600080fd5b600073ffffffffffffffffffffffffffffffffffffffff82169050919050565b60006200012982620000fc565b9050919050565b6200013b816200011c565b81146200014757600080fd5b50565b6000815190506200015b8162000130565b92915050565b6000819050919050565b620001768162000161565b81146200018257600080fd5b50565b60008151905062000196816200016b565b92915050565b600080fd5b600080fd5b6000601f19601f8301169050919050565b7f4e487b7100000000000000000000000000000000000000000000000000000000600052604160045260246000fd5b620001f182620001a6565b810181811067ffffffffffffffff82111715620002135762000212620001b7565b5b80604052505050565b600062000228620000e8565b9050620002368282620001e6565b919050565b600067ffffffffffffffff821115620002595762000258620001b7565b5b6200026482620001a6565b9050602081019050919050565b60005b838110156200029157808201518184015260208101905062000274565b60008484015250505050565b6000620002b4620002ae846200023b565b6200021c565b905082815260208101848484011115620002d357620002d2620001a1565b5b620002e084828562000271565b509392505050565b600082601f8301126200030057620002ff6200019c565b5b8151620003128482602086016200029d565b91505092915050565b600080600060608486031215620003375762000336620000f2565b5b600062000347868287016200014a565b93505060206200035a8682870162000185565b925050604084015167ffffffffffffffff8111156200037e576200037d620000f7565b5b6200038c86828701620002e8565b9150509250925092565b600081519050919050565b7f4e487b7100000000000000000000000000000000000000000000000000000000600052602260045260246000fd5b60006002820490506001821680620003e957607f821691505b602082108103620003ff57620003fe620003a1565b5b50919050565b60008190508160005260206000209050919050565b60006020601f8301049050919050565b600082821b905092915050565b600060088302620004697fffffffffffffffffffffffffffffffffffffffffffffffffffffffffffffffff826200042a565b6200047586836200042a565b95508019841693508086168417925050509392505050565b6000819050919050565b6000620004b8620004b2620004ac8462000161565b6200048d565b62000161565b9050919050565b6000819050919050565b620004d48362000497565b620004ec620004e382620004bf565b84845462000437565b825550505050565b600090565b62000503620004f4565b62000510818484620004c9565b505050565b5b8181101562000538576200052c600082620004f9565b60018101905062000516565b5050565b601f8211156200058757620005518162000405565b6200055c846200041a565b810160208510156200056c578190505b620005846200057b856200041a565b83018262000515565b50505b505050565b600082821c905092915050565b6000620005ac600019846008026200058c565b1980831691505092915050565b6000620005c7838362000599565b9150826002028217905092915050565b620005e28262000396565b67ffffffffffffffff811115620005fe57620005fd620001b7565b5b6200060a8254620003d0565b620006178282856200053c565b600060209050601f8311600181146200064f57600084156200063a578287015190505b620006468582620005b9565b865550620006b6565b601f1984166200065f8662000405565b60005b82811015620006895784890151825560018201915060208501945060208101905062000662565b86831015620006a95784890151620006a5601f89168262000599565b8355505b6001600288020188555050505b505050505050565b61149f80620006ce6000396000f3fe608060405234801561001057600080fd5b50600436106100cf5760003560e01c806383c4c00d1161008c578063ad4592ba11610066578063ad4592ba1461023c578063b7760c8f1461026c578063be16d3e21461029e578063d486645c146102ce576100cf565b806383c4c00d146101d0578063942b765a146101ee57806396102cf41461020c576100cf565b806305f8356b146100d4578063150704011461010457806317d7de7c146101225780633bb3a24d146101405780636a627842146101705780637ca76d57146101a0575b600080fd5b6100ee60048036038101906100e99190610dea565b6102ec565b6040516100fb9190610e45565b60405180910390f35b61010c610425565b6040516101199190610ef0565b60405180910390f35b61012a6104b7565b6040516101379190610ef0565b60405180910390f35b61015a60048036038101906101559190610f12565b610549565b6040516101679190610ef0565b60405180910390f35b61018a60048036038101906101859190610f9d565b6105a8565b6040516101979190610fd9565b60405180910390f35b6101ba60048036038101906101b59190610f12565b610668565b6040516101c79190610e45565b60405180910390f35b6101d86107a2565b6040516101e59190610fd9565b60405180910390f35b6101f66107ac565b60405161020391906110b2565b60405180910390f35b61022660048036038101906102219190610f12565b610804565b6040516102339190610fd9565b60405180910390f35b61025660048036038101906102519190610f9d565b610828565b6040516102639190610fd9565b60405180910390f35b610286600480360381019061028191906110d4565b610907565b60405161029593929190611123565b60405180910390f35b6102b860048036038101906102b39190610f12565b610b2c565b6040516102c5919061115a565b60405180910390f35b6102d6610b69565b6040516102e39190610fd9565b60405180910390f35b60006004548311610332576040517f08c379a0000000000000000000000000000000000000000000000000000000008152600401610329906111c1565b60405180910390fd5b6007600084815260200190815260200160002060009054906101000a900473ffffffffffffffffffffffffffffffffffffffff1673ffffffffffffffffffffffffffffffffffffffff16610384610b6f565b73ffffffffffffffffffffffffffffffffffffffff16036103da576040517f08c379a00000000000000000000000000000000000000000000000000000000081526004016103d19061122d565b60405180910390fd5b81600660008581526020019081526020016000208190555060058390806001815401808255809150506001900390600052602060002001600090919091909150556001905092915050565b6060600380546104349061127c565b80601f01602080910402602001604051908101604052809291908181526020018280546104609061127c565b80156104ad5780601f10610482576101008083540402835291602001916104ad565b820191906000526020600020905b81548152906001019060200180831161049057829003601f168201915b5050505050905090565b6060600280546104c69061127c565b80601f01602080910402602001604051908101604052809291908181526020018280546104f29061127c565b801561053f5780601f106105145761010080835404028352916020019161053f565b820191906000526020600020905b81548152906001019060200180831161052257829003601f168201915b5050505050905090565b60606000610555610b77565b9050600081511161057557604051806020016040528060008152506105a0565b8061057f84610b8e565b6040516020016105909291906112e9565b6040516020818303038152906040525b915050919050565b60006001600460008282546105bd919061133c565b92505081905550600454600860008473ffffffffffffffffffffffffffffffffffffffff1673ffffffffffffffffffffffffffffffffffffffff168152602001908152602001600020819055508160076000600454815260200190815260200160002060006101000a81548173ffffffffffffffffffffffffffffffffffffffff021916908373ffffffffffffffffffffffffffffffffffffffff1602179055506004549050919050565b60006007600083815260200190815260200160002060009054906101000a900473ffffffffffffffffffffffffffffffffffffffff1673ffffffffffffffffffffffffffffffffffffffff166106bc610b6f565b73ffffffffffffffffffffffffffffffffffffffff1603610712576040517f08c379a00000000000000000000000000000000000000000000000000000000081526004016107099061122d565b60405180910390fd5b60005b60058054905081101561079757826005828154811061073757610736611370565b5b90600052602060002001540361078a5760066000848152602001908152602001600020600090556005818154811061077257610771611370565b5b9060005260206000200160009055600191505061079d565b8080600101915050610715565b50600090505b919050565b6000600454905090565b606060058054806020026020016040519081016040528092919081815260200182805480156107fa57602002820191906000526020600020905b8154815260200190600101908083116107e6575b5050505050905090565b6005818154811061081457600080fd5b906000526020600020016000915090505481565b60008060009054906101000a900473ffffffffffffffffffffffffffffffffffffffff1673ffffffffffffffffffffffffffffffffffffffff1661086a610b6f565b73ffffffffffffffffffffffffffffffffffffffff16036108c0576040517f08c379a00000000000000000000000000000000000000000000000000000000081526004016108b7906113eb565b60405180910390fd5b600860008373ffffffffffffffffffffffffffffffffffffffff1673ffffffffffffffffffffffffffffffffffffffff168152602001908152602001600020549050919050565b60008060008060009054906101000a900473ffffffffffffffffffffffffffffffffffffffff1673ffffffffffffffffffffffffffffffffffffffff1661094c610b6f565b73ffffffffffffffffffffffffffffffffffffffff16036109a2576040517f08c379a0000000000000000000000000000000000000000000000000000000008152600401610999906113eb565b60405180910390fd5b60045485116109e6576040517f08c379a00000000000000000000000000000000000000000000000000000000081526004016109dd906111c1565b60405180910390fd5b60006109f186610b2c565b905060005b600580549050811015610b17578660058281548110610a1857610a17611370565b5b906000526020600020015403610b0a5786600860008873ffffffffffffffffffffffffffffffffffffffff1673ffffffffffffffffffffffffffffffffffffffff16815260200190815260200160002081905550856007600089815260200190815260200160002060006101000a81548173ffffffffffffffffffffffffffffffffffffffff021916908373ffffffffffffffffffffffffffffffffffffffff1602179055506000600660008981526020019081526020016000208190555060058181548110610aeb57610aea611370565b5b9060005260206000200160009055600187839450945094505050610b25565b80806001019150506109f6565b506000806000935093509350505b9250925092565b60006007600083815260200190815260200160002060009054906101000a900473ffffffffffffffffffffffffffffffffffffffff169050919050565b60045481565b600033905090565b606060405180602001604052806000815250905090565b606060006001610b9d84610c5c565b01905060008167ffffffffffffffff811115610bbc57610bbb61140b565b5b6040519080825280601f01601f191660200182016040528015610bee5781602001600182028036833780820191505090505b509050600082602001820190505b600115610c51578080600190039150507f3031323334353637383961626364656600000000000000000000000000000000600a86061a8153600a8581610c4557610c4461143a565b5b04945060008503610bfc575b819350505050919050565b600080600090507a184f03e93ff9f4daa797ed6e38ed64bf6a1f0100000000000000008310610cba577a184f03e93ff9f4daa797ed6e38ed64bf6a1f0100000000000000008381610cb057610caf61143a565b5b0492506040810190505b6d04ee2d6d415b85acef81000000008310610cf7576d04ee2d6d415b85acef81000000008381610ced57610cec61143a565b5b0492506020810190505b662386f26fc100008310610d2657662386f26fc100008381610d1c57610d1b61143a565b5b0492506010810190505b6305f5e1008310610d4f576305f5e1008381610d4557610d4461143a565b5b0492506008810190505b6127108310610d74576127108381610d6a57610d6961143a565b5b0492506004810190505b60648310610d975760648381610d8d57610d8c61143a565b5b0492506002810190505b600a8310610da6576001810190505b80915050919050565b600080fd5b6000819050919050565b610dc781610db4565b8114610dd257600080fd5b50565b600081359050610de481610dbe565b92915050565b60008060408385031215610e0157610e00610daf565b5b6000610e0f85828601610dd5565b9250506020610e2085828601610dd5565b9150509250929050565b60008115159050919050565b610e3f81610e2a565b82525050565b6000602082019050610e5a6000830184610e36565b92915050565b600081519050919050565b600082825260208201905092915050565b60005b83811015610e9a578082015181840152602081019050610e7f565b60008484015250505050565b6000601f19601f8301169050919050565b6000610ec282610e60565b610ecc8185610e6b565b9350610edc818560208601610e7c565b610ee581610ea6565b840191505092915050565b60006020820190508181036000830152610f0a8184610eb7565b905092915050565b600060208284031215610f2857610f27610daf565b5b6000610f3684828501610dd5565b91505092915050565b600073ffffffffffffffffffffffffffffffffffffffff82169050919050565b6000610f6a82610f3f565b9050919050565b610f7a81610f5f565b8114610f8557600080fd5b50565b600081359050610f9781610f71565b92915050565b600060208284031215610fb357610fb2610daf565b5b6000610fc184828501610f88565b91505092915050565b610fd381610db4565b82525050565b6000602082019050610fee6000830184610fca565b92915050565b600081519050919050565b600082825260208201905092915050565b6000819050602082019050919050565b61102981610db4565b82525050565b600061103b8383611020565b60208301905092915050565b6000602082019050919050565b600061105f82610ff4565b6110698185610fff565b935061107483611010565b8060005b838110156110a557815161108c888261102f565b975061109783611047565b925050600181019050611078565b5085935050505092915050565b600060208201905081810360008301526110cc8184611054565b905092915050565b600080604083850312156110eb576110ea610daf565b5b60006110f985828601610dd5565b925050602061110a85828601610f88565b9150509250929050565b61111d81610f5f565b82525050565b60006060820190506111386000830186610e36565b6111456020830185610fca565b6111526040830184611114565b949350505050565b600060208201905061116f6000830184611114565b92915050565b7f4572726f723a20496e76616c696420546f6b656e204964000000000000000000600082015250565b60006111ab601783610e6b565b91506111b682611175565b602082019050919050565b600060208201905081810360008301526111da8161119e565b9050919050565b7f4572726f723a204f6e6c79204f776e6572000000000000000000000000000000600082015250565b6000611217601183610e6b565b9150611222826111e1565b602082019050919050565b600060208201905081810360008301526112468161120a565b9050919050565b7f4e487b7100000000000000000000000000000000000000000000000000000000600052602260045260246000fd5b6000600282049050600182168061129457607f821691505b6020821081036112a7576112a661124d565b5b50919050565b600081905092915050565b60006112c382610e60565b6112cd81856112ad565b93506112dd818560208601610e7c565b80840191505092915050565b60006112f582856112b8565b915061130182846112b8565b91508190509392505050565b7f4e487b7100000000000000000000000000000000000000000000000000000000600052601160045260246000fd5b600061134782610db4565b915061135283610db4565b925082820190508082111561136a5761136961130d565b5b92915050565b7f4e487b7100000000000000000000000000000000000000000000000000000000600052603260045260246000fd5b7f4572726f723a20496e76616c6964204164647265737300000000000000000000600082015250565b60006113d5601683610e6b565b91506113e08261139f565b602082019050919050565b60006020820190508181036000830152611404816113c8565b9050919050565b7f4e487b7100000000000000000000000000000000000000000000000000000000600052604160045260246000fd5b7f4e487b7100000000000000000000000000000000000000000000000000000000600052601260045260246000fdfea2646970667358221220645567c19f51363476a3b032bd90b2a6594357a5b5a483ef4b719e23d67c410664736f6c63430008180033",
  "linkReferences": {},
  "deployedLinkReferences": {}
}