{
  "_format": "hh-sol-artifact-1",
  "contractName": "VoteFactory",
  "sourceName": "contracts/voteFactory/VoteFactory.sol",
  "abi": [
    {
      "inputs": [
        {
          "internalType": "address",
          "name": "_owner",
          "type": "address"
        }
      ],
      "stateMutability": "nonpayable",
      "type": "constructor"
    },
    {
      "anonymous": false,
      "inputs": [
        {
          "indexed": false,
          "internalType": "address",
          "name": "vote",
          "type": "address"
        },
        {
          "indexed": false,
          "internalType": "address",
          "name": "token",
          "type": "address"
        },
        {
          "indexed": false,
          "internalType": "address",
          "name": "pool",
          "type": "address"
        },
        {
          "indexed": false,
          "internalType": "address",
          "name": "trade",
          "type": "address"
        }
      ],
      "name": "CreatedVote",
      "type": "event"
    },
    {
      "inputs": [
        {
          "internalType": "string",
          "name": "_name",
          "type": "string"
        },
        {
          "internalType": "address",
          "name": "_target",
          "type": "address"
        },
        {
          "internalType": "uint256",
          "name": "_maxSupply",
          "type": "uint256"
        }
      ],
      "name": "createVote",
      "outputs": [
        {
          "components": [
            {
              "internalType": "address",
              "name": "vote",
              "type": "address"
            },
            {
              "internalType": "address",
              "name": "pool",
              "type": "address"
            },
            {
              "internalType": "address",
              "name": "token",
              "type": "address"
            },
            {
              "internalType": "address",
              "name": "trade",
              "type": "address"
            }
          ],
          "internalType": "struct Struct.VoteSet",
          "name": "",
          "type": "tuple"
        }
      ],
      "stateMutability": "nonpayable",
      "type": "function"
    },
    {
      "inputs": [
        {
          "internalType": "address",
          "name": "account",
          "type": "address"
        }
      ],
      "name": "isContract",
      "outputs": [
        {
          "internalType": "uint256",
          "name": "",
          "type": "uint256"
        }
      ],
      "stateMutability": "view",
      "type": "function"
    }
  ],
  "bytecode": "0x608060405234801561001057600080fd5b506040516200571b3803806200571b833981810160405281019061003491906100e5565b806000806101000a81548173ffffffffffffffffffffffffffffffffffffffff021916908373ffffffffffffffffffffffffffffffffffffffff160217905550600060018190555050610112565b600080fd5b600073ffffffffffffffffffffffffffffffffffffffff82169050919050565b60006100b282610087565b9050919050565b6100c2816100a7565b81146100cd57600080fd5b50565b6000815190506100df816100b9565b92915050565b6000602082840312156100fb576100fa610082565b5b6000610109848285016100d0565b91505092915050565b6155f980620001226000396000f3fe60806040523480156200001157600080fd5b50600436106200003a5760003560e01c806316279055146200003f57806371e6cc551462000075575b600080fd5b6200005d6004803603810190620000579190620006b0565b620000ab565b6040516200006c9190620006fd565b60405180910390f35b6200009360048036038101906200008d9190620008ad565b620000bb565b604051620000a2919062000996565b60405180910390f35b600080823b905080915050919050565b620000c56200057f565b82620000d181620003b5565b6001806000828254620000e59190620009e2565b9250508190555060008060009054906101000a900473ffffffffffffffffffffffffffffffffffffffff1684876040516200012090620005ff565b6200012e9392919062000ab7565b604051809103906000f0801580156200014b573d6000803e3d6000fd5b50905060008060009054906101000a900473ffffffffffffffffffffffffffffffffffffffff1682876200017e62000440565b886040516200018d906200060d565b6200019d95949392919062000b20565b604051809103906000f080158015620001ba573d6000803e3d6000fd5b50905060008783620001cb62000440565b89604051620001da906200061b565b620001e9949392919062000b7d565b604051809103906000f08015801562000206573d6000803e3d6000fd5b50905060008060009054906101000a900473ffffffffffffffffffffffffffffffffffffffff16846040516200023c9062000629565b6200024992919062000bd1565b604051809103906000f08015801562000266573d6000803e3d6000fd5b509050620002ef60405180608001604052808573ffffffffffffffffffffffffffffffffffffffff1681526020018473ffffffffffffffffffffffffffffffffffffffff1681526020018673ffffffffffffffffffffffffffffffffffffffff1681526020018373ffffffffffffffffffffffffffffffffffffffff1681525060015462000448565b7f09a56d936e334cf78102ce360e460e3229bc113e67e991ddca477443ee6ed02d8285858460405162000326949392919062000bfe565b60405180910390a160405180608001604052808473ffffffffffffffffffffffffffffffffffffffff1681526020018373ffffffffffffffffffffffffffffffffffffffff1681526020018573ffffffffffffffffffffffffffffffffffffffff1681526020018273ffffffffffffffffffffffffffffffffffffffff16815250955050505050509392505050565b60008073ffffffffffffffffffffffffffffffffffffffff168273ffffffffffffffffffffffffffffffffffffffff1614620003f3576000620003f6565b60015b905080156200043c576040517f08c379a0000000000000000000000000000000000000000000000000000000008152600401620004339062000c9b565b60405180910390fd5b5050565b600033905090565b816002600083815260200190815260200160002060008201518160000160006101000a81548173ffffffffffffffffffffffffffffffffffffffff021916908373ffffffffffffffffffffffffffffffffffffffff16021790555060208201518160010160006101000a81548173ffffffffffffffffffffffffffffffffffffffff021916908373ffffffffffffffffffffffffffffffffffffffff16021790555060408201518160020160006101000a81548173ffffffffffffffffffffffffffffffffffffffff021916908373ffffffffffffffffffffffffffffffffffffffff16021790555060608201518160030160006101000a81548173ffffffffffffffffffffffffffffffffffffffff021916908373ffffffffffffffffffffffffffffffffffffffff1602179055509050505050565b6040518060800160405280600073ffffffffffffffffffffffffffffffffffffffff168152602001600073ffffffffffffffffffffffffffffffffffffffff168152602001600073ffffffffffffffffffffffffffffffffffffffff168152602001600073ffffffffffffffffffffffffffffffffffffffff1681525090565b611bdb8062000cbe83390190565b61119b806200289983390190565b610ff78062003a3483390190565b610b998062004a2b83390190565b6000604051905090565b600080fd5b600080fd5b600073ffffffffffffffffffffffffffffffffffffffff82169050919050565b600062000678826200064b565b9050919050565b6200068a816200066b565b81146200069657600080fd5b50565b600081359050620006aa816200067f565b92915050565b600060208284031215620006c957620006c862000641565b5b6000620006d98482850162000699565b91505092915050565b6000819050919050565b620006f781620006e2565b82525050565b6000602082019050620007146000830184620006ec565b92915050565b600080fd5b600080fd5b6000601f19601f8301169050919050565b7f4e487b7100000000000000000000000000000000000000000000000000000000600052604160045260246000fd5b6200076f8262000724565b810181811067ffffffffffffffff8211171562000791576200079062000735565b5b80604052505050565b6000620007a662000637565b9050620007b4828262000764565b919050565b600067ffffffffffffffff821115620007d757620007d662000735565b5b620007e28262000724565b9050602081019050919050565b82818337600083830152505050565b6000620008156200080f84620007b9565b6200079a565b9050828152602081018484840111156200083457620008336200071f565b5b62000841848285620007ef565b509392505050565b600082601f8301126200086157620008606200071a565b5b813562000873848260208601620007fe565b91505092915050565b6200088781620006e2565b81146200089357600080fd5b50565b600081359050620008a7816200087c565b92915050565b600080600060608486031215620008c957620008c862000641565b5b600084013567ffffffffffffffff811115620008ea57620008e962000646565b5b620008f88682870162000849565b93505060206200090b8682870162000699565b92505060406200091e8682870162000896565b9150509250925092565b62000933816200066b565b82525050565b60808201600082015162000951600085018262000928565b50602082015162000966602085018262000928565b5060408201516200097b604085018262000928565b50606082015162000990606085018262000928565b50505050565b6000608082019050620009ad600083018462000939565b92915050565b7f4e487b7100000000000000000000000000000000000000000000000000000000600052601160045260246000fd5b6000620009ef82620006e2565b9150620009fc83620006e2565b925082820190508082111562000a175762000a16620009b3565b5b92915050565b62000a28816200066b565b82525050565b600081519050919050565b600082825260208201905092915050565b60005b8381101562000a6a57808201518184015260208101905062000a4d565b60008484015250505050565b600062000a838262000a2e565b62000a8f818562000a39565b935062000aa181856020860162000a4a565b62000aac8162000724565b840191505092915050565b600060608201905062000ace600083018662000a1d565b62000add6020830185620006ec565b818103604083015262000af1818462000a76565b9050949350505050565b600062000b08826200064b565b9050919050565b62000b1a8162000afb565b82525050565b600060a08201905062000b37600083018862000b0f565b62000b46602083018762000b0f565b62000b55604083018662000b0f565b62000b64606083018562000b0f565b62000b736080830184620006ec565b9695505050505050565b6000608082019050818103600083015262000b99818762000a76565b905062000baa602083018662000a1d565b62000bb9604083018562000a1d565b62000bc8606083018462000a1d565b95945050505050565b600060408201905062000be8600083018562000a1d565b62000bf7602083018462000a1d565b9392505050565b600060808201905062000c15600083018762000a1d565b62000c24602083018662000a1d565b62000c33604083018562000a1d565b62000c42606083018462000a1d565b95945050505050565b7f4572726f723a20496e76616c6964204164647265737300000000000000000000600082015250565b600062000c8360168362000a39565b915062000c908262000c4b565b602082019050919050565b6000602082019050818103600083015262000cb68162000c74565b905091905056fe60806040523480156200001157600080fd5b5060405162001bdb38038062001bdb83398181016040528101906200003791906200031b565b826000806101000a81548173ffffffffffffffffffffffffffffffffffffffff021916908373ffffffffffffffffffffffffffffffffffffffff1602179055508160018190555080600290816200008f9190620005d7565b506040518060400160405280600481526020017f564f54450000000000000000000000000000000000000000000000000000000081525060039081620000d69190620005d7565b506000600481905550505050620006be565b6000604051905090565b600080fd5b600080fd5b600073ffffffffffffffffffffffffffffffffffffffff82169050919050565b60006200012982620000fc565b9050919050565b6200013b816200011c565b81146200014757600080fd5b50565b6000815190506200015b8162000130565b92915050565b6000819050919050565b620001768162000161565b81146200018257600080fd5b50565b60008151905062000196816200016b565b92915050565b600080fd5b600080fd5b6000601f19601f8301169050919050565b7f4e487b7100000000000000000000000000000000000000000000000000000000600052604160045260246000fd5b620001f182620001a6565b810181811067ffffffffffffffff82111715620002135762000212620001b7565b5b80604052505050565b600062000228620000e8565b9050620002368282620001e6565b919050565b600067ffffffffffffffff821115620002595762000258620001b7565b5b6200026482620001a6565b9050602081019050919050565b60005b838110156200029157808201518184015260208101905062000274565b60008484015250505050565b6000620002b4620002ae846200023b565b6200021c565b905082815260208101848484011115620002d357620002d2620001a1565b5b620002e084828562000271565b509392505050565b600082601f8301126200030057620002ff6200019c565b5b8151620003128482602086016200029d565b91505092915050565b600080600060608486031215620003375762000336620000f2565b5b600062000347868287016200014a565b93505060206200035a8682870162000185565b925050604084015167ffffffffffffffff8111156200037e576200037d620000f7565b5b6200038c86828701620002e8565b9150509250925092565b600081519050919050565b7f4e487b7100000000000000000000000000000000000000000000000000000000600052602260045260246000fd5b60006002820490506001821680620003e957607f821691505b602082108103620003ff57620003fe620003a1565b5b50919050565b60008190508160005260206000209050919050565b60006020601f8301049050919050565b600082821b905092915050565b600060088302620004697fffffffffffffffffffffffffffffffffffffffffffffffffffffffffffffffff826200042a565b6200047586836200042a565b95508019841693508086168417925050509392505050565b6000819050919050565b6000620004b8620004b2620004ac8462000161565b6200048d565b62000161565b9050919050565b6000819050919050565b620004d48362000497565b620004ec620004e382620004bf565b84845462000437565b825550505050565b600090565b62000503620004f4565b62000510818484620004c9565b505050565b5b8181101562000538576200052c600082620004f9565b60018101905062000516565b5050565b601f8211156200058757620005518162000405565b6200055c846200041a565b810160208510156200056c578190505b620005846200057b856200041a565b83018262000515565b50505b505050565b600082821c905092915050565b6000620005ac600019846008026200058c565b1980831691505092915050565b6000620005c7838362000599565b9150826002028217905092915050565b620005e28262000396565b67ffffffffffffffff811115620005fe57620005fd620001b7565b5b6200060a8254620003d0565b620006178282856200053c565b600060209050601f8311600181146200064f57600084156200063a578287015190505b620006468582620005b9565b865550620006b6565b601f1984166200065f8662000405565b60005b82811015620006895784890151825560018201915060208501945060208101905062000662565b86831015620006a95784890151620006a5601f89168262000599565b8355505b6001600288020188555050505b505050505050565b61150d80620006ce6000396000f3fe608060405234801561001057600080fd5b50600436106100cf5760003560e01c806383c4c00d1161008c578063ad4592ba11610066578063ad4592ba1461023c578063b7760c8f1461026c578063be16d3e21461029e578063d486645c146102ce576100cf565b806383c4c00d146101d0578063942b765a146101ee57806396102cf41461020c576100cf565b806305f8356b146100d4578063150704011461010457806317d7de7c146101225780633bb3a24d146101405780636a627842146101705780637ca76d57146101a0575b600080fd5b6100ee60048036038101906100e99190610e58565b6102ec565b6040516100fb9190610eb3565b60405180910390f35b61010c610425565b6040516101199190610f5e565b60405180910390f35b61012a6104b7565b6040516101379190610f5e565b60405180910390f35b61015a60048036038101906101559190610f80565b610549565b6040516101679190610f5e565b60405180910390f35b61018a6004803603810190610185919061100b565b6105a8565b6040516101979190611047565b60405180910390f35b6101ba60048036038101906101b59190610f80565b6106d6565b6040516101c79190610eb3565b60405180910390f35b6101d8610810565b6040516101e59190611047565b60405180910390f35b6101f661081a565b6040516102039190611120565b60405180910390f35b61022660048036038101906102219190610f80565b610872565b6040516102339190611047565b60405180910390f35b6102566004803603810190610251919061100b565b610896565b6040516102639190611047565b60405180910390f35b61028660048036038101906102819190611142565b610975565b60405161029593929190611191565b60405180910390f35b6102b860048036038101906102b39190610f80565b610b9a565b6040516102c591906111c8565b60405180910390f35b6102d6610bd7565b6040516102e39190611047565b60405180910390f35b60006004548311610332576040517f08c379a00000000000000000000000000000000000000000000000000000000081526004016103299061122f565b60405180910390fd5b6007600084815260200190815260200160002060009054906101000a900473ffffffffffffffffffffffffffffffffffffffff1673ffffffffffffffffffffffffffffffffffffffff16610384610bdd565b73ffffffffffffffffffffffffffffffffffffffff16036103da576040517f08c379a00000000000000000000000000000000000000000000000000000000081526004016103d19061129b565b60405180910390fd5b81600660008581526020019081526020016000208190555060058390806001815401808255809150506001900390600052602060002001600090919091909150556001905092915050565b606060038054610434906112ea565b80601f0160208091040260200160405190810160405280929190818152602001828054610460906112ea565b80156104ad5780601f10610482576101008083540402835291602001916104ad565b820191906000526020600020905b81548152906001019060200180831161049057829003601f168201915b5050505050905090565b6060600280546104c6906112ea565b80601f01602080910402602001604051908101604052809291908181526020018280546104f2906112ea565b801561053f5780601f106105145761010080835404028352916020019161053f565b820191906000526020600020905b81548152906001019060200180831161052257829003601f168201915b5050505050905090565b60606000610555610be5565b9050600081511161057557604051806020016040528060008152506105a0565b8061057f84610bfc565b604051602001610590929190611357565b6040516020818303038152906040525b915050919050565b60008073ffffffffffffffffffffffffffffffffffffffff168273ffffffffffffffffffffffffffffffffffffffff1614610618576040517f08c379a000000000000000000000000000000000000000000000000000000000815260040161060f906113c7565b60405180910390fd5b60016004600082825461062b9190611416565b92505081905550600454600860008473ffffffffffffffffffffffffffffffffffffffff1673ffffffffffffffffffffffffffffffffffffffff168152602001908152602001600020819055508160076000600454815260200190815260200160002060006101000a81548173ffffffffffffffffffffffffffffffffffffffff021916908373ffffffffffffffffffffffffffffffffffffffff1602179055506004549050919050565b60006007600083815260200190815260200160002060009054906101000a900473ffffffffffffffffffffffffffffffffffffffff1673ffffffffffffffffffffffffffffffffffffffff1661072a610bdd565b73ffffffffffffffffffffffffffffffffffffffff1603610780576040517f08c379a00000000000000000000000000000000000000000000000000000000081526004016107779061129b565b60405180910390fd5b60005b6005805490508110156108055782600582815481106107a5576107a461144a565b5b9060005260206000200154036107f8576006600084815260200190815260200160002060009055600581815481106107e0576107df61144a565b5b9060005260206000200160009055600191505061080b565b8080600101915050610783565b50600090505b919050565b6000600454905090565b6060600580548060200260200160405190810160405280929190818152602001828054801561086857602002820191906000526020600020905b815481526020019060010190808311610854575b5050505050905090565b6005818154811061088257600080fd5b906000526020600020016000915090505481565b60008060009054906101000a900473ffffffffffffffffffffffffffffffffffffffff1673ffffffffffffffffffffffffffffffffffffffff166108d8610bdd565b73ffffffffffffffffffffffffffffffffffffffff160361092e576040517f08c379a0000000000000000000000000000000000000000000000000000000008152600401610925906113c7565b60405180910390fd5b600860008373ffffffffffffffffffffffffffffffffffffffff1673ffffffffffffffffffffffffffffffffffffffff168152602001908152602001600020549050919050565b60008060008060009054906101000a900473ffffffffffffffffffffffffffffffffffffffff1673ffffffffffffffffffffffffffffffffffffffff166109ba610bdd565b73ffffffffffffffffffffffffffffffffffffffff1603610a10576040517f08c379a0000000000000000000000000000000000000000000000000000000008152600401610a07906113c7565b60405180910390fd5b6004548511610a54576040517f08c379a0000000000000000000000000000000000000000000000000000000008152600401610a4b9061122f565b60405180910390fd5b6000610a5f86610b9a565b905060005b600580549050811015610b85578660058281548110610a8657610a8561144a565b5b906000526020600020015403610b785786600860008873ffffffffffffffffffffffffffffffffffffffff1673ffffffffffffffffffffffffffffffffffffffff16815260200190815260200160002081905550856007600089815260200190815260200160002060006101000a81548173ffffffffffffffffffffffffffffffffffffffff021916908373ffffffffffffffffffffffffffffffffffffffff1602179055506000600660008981526020019081526020016000208190555060058181548110610b5957610b5861144a565b5b9060005260206000200160009055600187839450945094505050610b93565b8080600101915050610a64565b506000806000935093509350505b9250925092565b60006007600083815260200190815260200160002060009054906101000a900473ffffffffffffffffffffffffffffffffffffffff169050919050565b60045481565b600033905090565b606060405180602001604052806000815250905090565b606060006001610c0b84610cca565b01905060008167ffffffffffffffff811115610c2a57610c29611479565b5b6040519080825280601f01601f191660200182016040528015610c5c5781602001600182028036833780820191505090505b509050600082602001820190505b600115610cbf578080600190039150507f3031323334353637383961626364656600000000000000000000000000000000600a86061a8153600a8581610cb357610cb26114a8565b5b04945060008503610c6a575b819350505050919050565b600080600090507a184f03e93ff9f4daa797ed6e38ed64bf6a1f0100000000000000008310610d28577a184f03e93ff9f4daa797ed6e38ed64bf6a1f0100000000000000008381610d1e57610d1d6114a8565b5b0492506040810190505b6d04ee2d6d415b85acef81000000008310610d65576d04ee2d6d415b85acef81000000008381610d5b57610d5a6114a8565b5b0492506020810190505b662386f26fc100008310610d9457662386f26fc100008381610d8a57610d896114a8565b5b0492506010810190505b6305f5e1008310610dbd576305f5e1008381610db357610db26114a8565b5b0492506008810190505b6127108310610de2576127108381610dd857610dd76114a8565b5b0492506004810190505b60648310610e055760648381610dfb57610dfa6114a8565b5b0492506002810190505b600a8310610e14576001810190505b80915050919050565b600080fd5b6000819050919050565b610e3581610e22565b8114610e4057600080fd5b50565b600081359050610e5281610e2c565b92915050565b60008060408385031215610e6f57610e6e610e1d565b5b6000610e7d85828601610e43565b9250506020610e8e85828601610e43565b9150509250929050565b60008115159050919050565b610ead81610e98565b82525050565b6000602082019050610ec86000830184610ea4565b92915050565b600081519050919050565b600082825260208201905092915050565b60005b83811015610f08578082015181840152602081019050610eed565b60008484015250505050565b6000601f19601f8301169050919050565b6000610f3082610ece565b610f3a8185610ed9565b9350610f4a818560208601610eea565b610f5381610f14565b840191505092915050565b60006020820190508181036000830152610f788184610f25565b905092915050565b600060208284031215610f9657610f95610e1d565b5b6000610fa484828501610e43565b91505092915050565b600073ffffffffffffffffffffffffffffffffffffffff82169050919050565b6000610fd882610fad565b9050919050565b610fe881610fcd565b8114610ff357600080fd5b50565b60008135905061100581610fdf565b92915050565b60006020828403121561102157611020610e1d565b5b600061102f84828501610ff6565b91505092915050565b61104181610e22565b82525050565b600060208201905061105c6000830184611038565b92915050565b600081519050919050565b600082825260208201905092915050565b6000819050602082019050919050565b61109781610e22565b82525050565b60006110a9838361108e565b60208301905092915050565b6000602082019050919050565b60006110cd82611062565b6110d7818561106d565b93506110e28361107e565b8060005b838110156111135781516110fa888261109d565b9750611105836110b5565b9250506001810190506110e6565b5085935050505092915050565b6000602082019050818103600083015261113a81846110c2565b905092915050565b6000806040838503121561115957611158610e1d565b5b600061116785828601610e43565b925050602061117885828601610ff6565b9150509250929050565b61118b81610fcd565b82525050565b60006060820190506111a66000830186610ea4565b6111b36020830185611038565b6111c06040830184611182565b949350505050565b60006020820190506111dd6000830184611182565b92915050565b7f4572726f723a20496e76616c696420546f6b656e204964000000000000000000600082015250565b6000611219601783610ed9565b9150611224826111e3565b602082019050919050565b600060208201905081810360008301526112488161120c565b9050919050565b7f4572726f723a204f6e6c79204f776e6572000000000000000000000000000000600082015250565b6000611285601183610ed9565b91506112908261124f565b602082019050919050565b600060208201905081810360008301526112b481611278565b9050919050565b7f4e487b7100000000000000000000000000000000000000000000000000000000600052602260045260246000fd5b6000600282049050600182168061130257607f821691505b602082108103611315576113146112bb565b5b50919050565b600081905092915050565b600061133182610ece565b61133b818561131b565b935061134b818560208601610eea565b80840191505092915050565b60006113638285611326565b915061136f8284611326565b91508190509392505050565b7f4572726f723a20496e76616c6964204164647265737300000000000000000000600082015250565b60006113b1601683610ed9565b91506113bc8261137b565b602082019050919050565b600060208201905081810360008301526113e0816113a4565b9050919050565b7f4e487b7100000000000000000000000000000000000000000000000000000000600052601160045260246000fd5b600061142182610e22565b915061142c83610e22565b9250828201905080821115611444576114436113e7565b5b92915050565b7f4e487b7100000000000000000000000000000000000000000000000000000000600052603260045260246000fd5b7f4e487b7100000000000000000000000000000000000000000000000000000000600052604160045260246000fd5b7f4e487b7100000000000000000000000000000000000000000000000000000000600052601260045260246000fdfea2646970667358221220810127871f010cb69eb2a2ed6eb4ab585141b9063f7e1baf7a3180b2b80f31bf64736f6c6343000818003360806040523480156200001157600080fd5b506040516200119b3803806200119b8339818101604052810190620000379190620001f9565b846000806101000a81548173ffffffffffffffffffffffffffffffffffffffff021916908373ffffffffffffffffffffffffffffffffffffffff16021790555082600160006101000a81548173ffffffffffffffffffffffffffffffffffffffff021916908373ffffffffffffffffffffffffffffffffffffffff16021790555081600260006101000a81548173ffffffffffffffffffffffffffffffffffffffff021916908373ffffffffffffffffffffffffffffffffffffffff160217905550600060058190555083600360006101000a81548173ffffffffffffffffffffffffffffffffffffffff021916908373ffffffffffffffffffffffffffffffffffffffff16021790555080600481905550505050505062000281565b600080fd5b600073ffffffffffffffffffffffffffffffffffffffff82169050919050565b6000620001868262000159565b9050919050565b620001988162000179565b8114620001a457600080fd5b50565b600081519050620001b8816200018d565b92915050565b6000819050919050565b620001d381620001be565b8114620001df57600080fd5b50565b600081519050620001f381620001c8565b92915050565b600080600080600060a0868803121562000218576200021762000154565b5b60006200022888828901620001a7565b95505060206200023b88828901620001a7565b94505060406200024e88828901620001a7565b93505060606200026188828901620001a7565b92505060806200027488828901620001e2565b9150509295509295909350565b610f0a80620002916000396000f3fe60806040526004361061008a5760003560e01c80636a627842116100595780636a6278421461015057806388ab41681461018d5780639380b1cf146101b8578063a6f9dae1146101e4578063b813f0931461020d576100a1565b806304464921146100a657806308158358146100d157806326a4e8d2146100fc5780634c0f38c214610125576100a1565b366100a15761009f61009a610239565b610241565b005b600080fd5b3480156100b257600080fd5b506100bb61049c565b6040516100c89190610910565b60405180910390f35b3480156100dd57600080fd5b506100e66104bc565b6040516100f39190610910565b60405180910390f35b34801561010857600080fd5b50610123600480360381019061011e919061098e565b6104dc565b005b34801561013157600080fd5b5061013a6105ec565b6040516101479190610910565b60405180910390f35b34801561015c57600080fd5b506101776004803603810190610172919061098e565b610241565b60405161018491906109d6565b60405180910390f35b34801561019957600080fd5b506101a26105f6565b6040516101af9190610910565b60405180910390f35b3480156101c457600080fd5b506101cd610600565b6040516101db9291906109f1565b60405180910390f35b3480156101f057600080fd5b5061020b60048036038101906102069190610a58565b6106a7565b005b34801561021957600080fd5b506102226107b9565b6040516102309291906109f1565b60405180910390f35b600033905090565b60008073ffffffffffffffffffffffffffffffffffffffff16600360009054906101000a900473ffffffffffffffffffffffffffffffffffffffff1673ffffffffffffffffffffffffffffffffffffffff16036102d3576040517f08c379a00000000000000000000000000000000000000000000000000000000081526004016102ca90610ae2565b60405180910390fd5b600554600454101561031a576040517f08c379a000000000000000000000000000000000000000000000000000000000815260040161031190610b74565b60405180910390fd5b600080600360009054906101000a900473ffffffffffffffffffffffffffffffffffffffff1673ffffffffffffffffffffffffffffffffffffffff16846040516024016103679190610ba3565b6040516020818303038152906040527f6a627842000000000000000000000000000000000000000000000000000000007bffffffffffffffffffffffffffffffffffffffffffffffffffffffff19166020820180517bffffffffffffffffffffffffffffffffffffffffffffffffffffffff83818316178352505050506040516103f19190610c2f565b6000604051808303816000865af19150503d806000811461042e576040519150601f19603f3d011682016040523d82523d6000602084013e610433565b606091505b50915091508115610459576001600560008282546104519190610c75565b925050819055505b7f3a37a829753738d7d89a835fdcf121048d39040746b46cb40df2c8715ae49c3c848360405161048a929190610ca9565b60405180910390a18192505050919050565b600060056064476104ad9190610d01565b6104b79190610d32565b905090565b6000605f6064476104cd9190610d01565b6104d79190610d32565b905090565b60008054906101000a900473ffffffffffffffffffffffffffffffffffffffff1673ffffffffffffffffffffffffffffffffffffffff1661051b610239565b73ffffffffffffffffffffffffffffffffffffffff1603610571576040517f08c379a000000000000000000000000000000000000000000000000000000000815260040161056890610dc0565b60405180910390fd5b80600360006101000a81548173ffffffffffffffffffffffffffffffffffffffff021916908373ffffffffffffffffffffffffffffffffffffffff1602179055507f33a7e73920e7bb871d64f12f439f70e8d764c488da2188d67bd27ddb60205137816040516105e19190610ba3565b60405180910390a150565b6000600454905090565b6000600554905090565b600080600260009054906101000a900473ffffffffffffffffffffffffffffffffffffffff1673ffffffffffffffffffffffffffffffffffffffff166108fc600560644761064e9190610d01565b6106589190610d32565b9081150290604051600060405180830381858888f19350505050158015610683573d6000803e3d6000fd5b50600160056064476106959190610d01565b61069f9190610d32565b915091509091565b60008054906101000a900473ffffffffffffffffffffffffffffffffffffffff1673ffffffffffffffffffffffffffffffffffffffff166106e6610239565b73ffffffffffffffffffffffffffffffffffffffff160361073c576040517f08c379a000000000000000000000000000000000000000000000000000000000815260040161073390610dc0565b60405180910390fd5b806000806101000a81548173ffffffffffffffffffffffffffffffffffffffff021916908373ffffffffffffffffffffffffffffffffffffffff1602179055507ff0e0189256774be8c5b09e6521cefca63544c5b1c06dd8a9ed6c12a34cf85c878160016040516107ae929190610e3f565b60405180910390a150565b600080600160009054906101000a900473ffffffffffffffffffffffffffffffffffffffff1673ffffffffffffffffffffffffffffffffffffffff166107fd610239565b73ffffffffffffffffffffffffffffffffffffffff1603610853576040517f08c379a000000000000000000000000000000000000000000000000000000000815260040161084a90610eb4565b60405180910390fd5b600160009054906101000a900473ffffffffffffffffffffffffffffffffffffffff1673ffffffffffffffffffffffffffffffffffffffff166108fc605f60644761089e9190610d01565b6108a89190610d32565b9081150290604051600060405180830381858888f193505050501580156108d3573d6000803e3d6000fd5b506001605f6064476108e59190610d01565b6108ef9190610d32565b915091509091565b6000819050919050565b61090a816108f7565b82525050565b60006020820190506109256000830184610901565b92915050565b600080fd5b600073ffffffffffffffffffffffffffffffffffffffff82169050919050565b600061095b82610930565b9050919050565b61096b81610950565b811461097657600080fd5b50565b60008135905061098881610962565b92915050565b6000602082840312156109a4576109a361092b565b5b60006109b284828501610979565b91505092915050565b60008115159050919050565b6109d0816109bb565b82525050565b60006020820190506109eb60008301846109c7565b92915050565b6000604082019050610a0660008301856109c7565b610a136020830184610901565b9392505050565b6000610a2582610930565b9050919050565b610a3581610a1a565b8114610a4057600080fd5b50565b600081359050610a5281610a2c565b92915050565b600060208284031215610a6e57610a6d61092b565b5b6000610a7c84828501610a43565b91505092915050565b600082825260208201905092915050565b7f4572726f723a20546f6b656e20436f6e7472616374204e6f7420536574000000600082015250565b6000610acc601d83610a85565b9150610ad782610a96565b602082019050919050565b60006020820190508181036000830152610afb81610abf565b9050919050565b7f4572726f723a20457665727920546f6b656e20416c7265616479204d696e746560008201527f6400000000000000000000000000000000000000000000000000000000000000602082015250565b6000610b5e602183610a85565b9150610b6982610b02565b604082019050919050565b60006020820190508181036000830152610b8d81610b51565b9050919050565b610b9d81610950565b82525050565b6000602082019050610bb86000830184610b94565b92915050565b600081519050919050565b600081905092915050565b60005b83811015610bf2578082015181840152602081019050610bd7565b60008484015250505050565b6000610c0982610bbe565b610c138185610bc9565b9350610c23818560208601610bd4565b80840191505092915050565b6000610c3b8284610bfe565b915081905092915050565b7f4e487b7100000000000000000000000000000000000000000000000000000000600052601160045260246000fd5b6000610c80826108f7565b9150610c8b836108f7565b9250828201905080821115610ca357610ca2610c46565b5b92915050565b6000604082019050610cbe6000830185610b94565b610ccb60208301846109c7565b9392505050565b7f4e487b7100000000000000000000000000000000000000000000000000000000600052601260045260246000fd5b6000610d0c826108f7565b9150610d17836108f7565b925082610d2757610d26610cd2565b5b828204905092915050565b6000610d3d826108f7565b9150610d48836108f7565b9250828202610d56816108f7565b91508282048414831517610d6d57610d6c610c46565b5b5092915050565b7f4572726f723a204f6e6c79204f776e6572000000000000000000000000000000600082015250565b6000610daa601183610a85565b9150610db582610d74565b602082019050919050565b60006020820190508181036000830152610dd981610d9d565b9050919050565b6000819050919050565b6000610e05610e00610dfb84610930565b610de0565b610930565b9050919050565b6000610e1782610dea565b9050919050565b6000610e2982610e0c565b9050919050565b610e3981610e1e565b82525050565b6000604082019050610e546000830185610e30565b610e6160208301846109c7565b9392505050565b7f4572726f723a204f6e6c79205461726765740000000000000000000000000000600082015250565b6000610e9e601283610a85565b9150610ea982610e68565b602082019050919050565b60006020820190508181036000830152610ecd81610e91565b905091905056fea2646970667358221220ee3e96a66c202427b9b7b217a1b31abcc9a25bb80fff0a065f0294ddeda84f5464736f6c6343000818003360806040523480156200001157600080fd5b5060405162000ff738038062000ff7833981810160405281019062000037919062000329565b836000908162000048919062000605565b5081600160006101000a81548173ffffffffffffffffffffffffffffffffffffffff021916908373ffffffffffffffffffffffffffffffffffffffff16021790555080600260006101000a81548173ffffffffffffffffffffffffffffffffffffffff021916908373ffffffffffffffffffffffffffffffffffffffff16021790555082600360006101000a81548173ffffffffffffffffffffffffffffffffffffffff021916908373ffffffffffffffffffffffffffffffffffffffff1602179055506000600360146101000a81548160ff02191690831515021790555050505050620006ec565b6000604051905090565b600080fd5b600080fd5b600080fd5b600080fd5b6000601f19601f8301169050919050565b7f4e487b7100000000000000000000000000000000000000000000000000000000600052604160045260246000fd5b6200019a826200014f565b810181811067ffffffffffffffff82111715620001bc57620001bb62000160565b5b80604052505050565b6000620001d162000131565b9050620001df82826200018f565b919050565b600067ffffffffffffffff82111562000202576200020162000160565b5b6200020d826200014f565b9050602081019050919050565b60005b838110156200023a5780820151818401526020810190506200021d565b60008484015250505050565b60006200025d6200025784620001e4565b620001c5565b9050828152602081018484840111156200027c576200027b6200014a565b5b620002898482856200021a565b509392505050565b600082601f830112620002a957620002a862000145565b5b8151620002bb84826020860162000246565b91505092915050565b600073ffffffffffffffffffffffffffffffffffffffff82169050919050565b6000620002f182620002c4565b9050919050565b6200030381620002e4565b81146200030f57600080fd5b50565b6000815190506200032381620002f8565b92915050565b600080600080608085870312156200034657620003456200013b565b5b600085015167ffffffffffffffff81111562000367576200036662000140565b5b620003758782880162000291565b9450506020620003888782880162000312565b93505060406200039b8782880162000312565b9250506060620003ae8782880162000312565b91505092959194509250565b600081519050919050565b7f4e487b7100000000000000000000000000000000000000000000000000000000600052602260045260246000fd5b600060028204905060018216806200040d57607f821691505b602082108103620004235762000422620003c5565b5b50919050565b60008190508160005260206000209050919050565b60006020601f8301049050919050565b600082821b905092915050565b6000600883026200048d7fffffffffffffffffffffffffffffffffffffffffffffffffffffffffffffffff826200044e565b6200049986836200044e565b95508019841693508086168417925050509392505050565b6000819050919050565b6000819050919050565b6000620004e6620004e0620004da84620004b1565b620004bb565b620004b1565b9050919050565b6000819050919050565b6200050283620004c5565b6200051a6200051182620004ed565b8484546200045b565b825550505050565b600090565b6200053162000522565b6200053e818484620004f7565b505050565b5b8181101562000566576200055a60008262000527565b60018101905062000544565b5050565b601f821115620005b5576200057f8162000429565b6200058a846200043e565b810160208510156200059a578190505b620005b2620005a9856200043e565b83018262000543565b50505b505050565b600082821c905092915050565b6000620005da60001984600802620005ba565b1980831691505092915050565b6000620005f58383620005c7565b9150826002028217905092915050565b6200061082620003ba565b67ffffffffffffffff8111156200062c576200062b62000160565b5b620006388254620003f4565b620006458282856200056a565b600060209050601f8311600181146200067d576000841562000668578287015190505b620006748582620005e7565b865550620006e4565b601f1984166200068d8662000429565b60005b82811015620006b75784890151825560018201915060208501945060208101905062000690565b86831015620006d75784890151620006d3601f891682620005c7565b8355505b6001600288020188555050505b505050505050565b6108fb80620006fc6000396000f3fe608060405234801561001057600080fd5b50600436106100885760003560e01c8063d446bfe51161005b578063d446bfe514610103578063d4b8399214610121578063fad386db1461013f578063fc0c546a1461016f57610088565b806302d05d3f1461008d57806306fdde03146100ab5780635f74bbde146100c95780637e876182146100e5575b600080fd5b61009561018d565b6040516100a291906104f8565b60405180910390f35b6100b36101b3565b6040516100c091906105a3565b60405180910390f35b6100e360048036038101906100de919061062c565b610241565b005b6100ed61036b565b6040516100fa9190610687565b60405180910390f35b61010b610382565b6040516101189190610687565b60405180910390f35b610129610395565b60405161013691906104f8565b60405180910390f35b610159600480360381019061015491906106ce565b6103bb565b6040516101669190610687565b60405180910390f35b610177610489565b60405161018491906104f8565b60405180910390f35b600160009054906101000a900473ffffffffffffffffffffffffffffffffffffffff1681565b600080546101c09061072a565b80601f01602080910402602001604051908101604052809291908181526020018280546101ec9061072a565b80156102395780601f1061020e57610100808354040283529160200191610239565b820191906000526020600020905b81548152906001019060200180831161021c57829003601f168201915b505050505081565b81600360009054906101000a900473ffffffffffffffffffffffffffffffffffffffff1673ffffffffffffffffffffffffffffffffffffffff168173ffffffffffffffffffffffffffffffffffffffff16036102d2576040517f08c379a00000000000000000000000000000000000000000000000000000000081526004016102c9906107a7565b60405180910390fd5b8160006004600083815260200190815260200160002060009054906101000a900460ff16905080610338576040517f08c379a000000000000000000000000000000000000000000000000000000000815260040161032f90610839565b60405180910390fd5b60016004600086815260200190815260200160002060006101000a81548160ff0219169083151502179055505050505050565b6000600360149054906101000a900460ff16905090565b600360149054906101000a900460ff1681565b600260009054906101000a900473ffffffffffffffffffffffffffffffffffffffff1681565b600080600260009054906101000a900473ffffffffffffffffffffffffffffffffffffffff1673ffffffffffffffffffffffffffffffffffffffff166103ff6104af565b73ffffffffffffffffffffffffffffffffffffffff1614610421576000610424565b60015b905080610466576040517f08c379a000000000000000000000000000000000000000000000000000000000815260040161045d906108a5565b60405180910390fd5b82600360146101000a81548160ff02191690831515021790555082915050919050565b600360009054906101000a900473ffffffffffffffffffffffffffffffffffffffff1681565b600033905090565b600073ffffffffffffffffffffffffffffffffffffffff82169050919050565b60006104e2826104b7565b9050919050565b6104f2816104d7565b82525050565b600060208201905061050d60008301846104e9565b92915050565b600081519050919050565b600082825260208201905092915050565b60005b8381101561054d578082015181840152602081019050610532565b60008484015250505050565b6000601f19601f8301169050919050565b600061057582610513565b61057f818561051e565b935061058f81856020860161052f565b61059881610559565b840191505092915050565b600060208201905081810360008301526105bd818461056a565b905092915050565b600080fd5b6105d3816104d7565b81146105de57600080fd5b50565b6000813590506105f0816105ca565b92915050565b6000819050919050565b610609816105f6565b811461061457600080fd5b50565b60008135905061062681610600565b92915050565b60008060408385031215610643576106426105c5565b5b6000610651858286016105e1565b925050602061066285828601610617565b9150509250929050565b60008115159050919050565b6106818161066c565b82525050565b600060208201905061069c6000830184610678565b92915050565b6106ab8161066c565b81146106b657600080fd5b50565b6000813590506106c8816106a2565b92915050565b6000602082840312156106e4576106e36105c5565b5b60006106f2848285016106b9565b91505092915050565b7f4e487b7100000000000000000000000000000000000000000000000000000000600052602260045260246000fd5b6000600282049050600182168061074257607f821691505b602082108103610755576107546106fb565b5b50919050565b7f4572726f723a20496e76616c696420546f6b656e204164647265737300000000600082015250565b6000610791601c8361051e565b915061079c8261075b565b602082019050919050565b600060208201905081810360008301526107c081610784565b9050919050565b7f4572726f723a20416c726561647920566f74656420576974682054686973205460008201527f6f6b656e49640000000000000000000000000000000000000000000000000000602082015250565b600061082360268361051e565b915061082e826107c7565b604082019050919050565b6000602082019050818103600083015261085281610816565b9050919050565b7f4572726f723a204f6e6c79205461726765740000000000000000000000000000600082015250565b600061088f60128361051e565b915061089a82610859565b602082019050919050565b600060208201905081810360008301526108be81610882565b905091905056fea26469706673582212202466b2fcebf6d5a6405dabd6f00e6b74ffd3bffc315f56c99bc8a85c442bb37264736f6c63430008180033608060405234801561001057600080fd5b50604051610b99380380610b998339818101604052810190610032919061011d565b816000806101000a81548173ffffffffffffffffffffffffffffffffffffffff021916908373ffffffffffffffffffffffffffffffffffffffff16021790555080600160006101000a81548173ffffffffffffffffffffffffffffffffffffffff021916908373ffffffffffffffffffffffffffffffffffffffff160217905550505061015d565b600080fd5b600073ffffffffffffffffffffffffffffffffffffffff82169050919050565b60006100ea826100bf565b9050919050565b6100fa816100df565b811461010557600080fd5b50565b600081519050610117816100f1565b92915050565b60008060408385031215610134576101336100ba565b5b600061014285828601610108565b925050602061015385828601610108565b9150509250929050565b610a2d8061016c6000396000f3fe6080604052600436106100225760003560e01c80631a6952301461003e57610039565b366100395761003761003261007c565b610084565b005b600080fd5b34801561004a57600080fd5b506100656004803603810190610060919061049e565b610084565b6040516100739291906104ff565b60405180910390f35b600033905090565b600080600080600160009054906101000a900473ffffffffffffffffffffffffffffffffffffffff1673ffffffffffffffffffffffffffffffffffffffff166040516024016040516020818303038152906040527f942b765a000000000000000000000000000000000000000000000000000000007bffffffffffffffffffffffffffffffffffffffffffffffffffffffff19166020820180517bffffffffffffffffffffffffffffffffffffffffffffffffffffffff83818316178352505050506040516101539190610599565b6000604051808303816000865af19150503d8060008114610190576040519150601f19603f3d011682016040523d82523d6000602084013e610195565b606091505b509150915081156101db576040517f08c379a00000000000000000000000000000000000000000000000000000000081526004016101d29061060d565b60405180910390fd5b6000818060200190518101906101f191906107b2565b90506000815114610237576040517f08c379a000000000000000000000000000000000000000000000000000000000815260040161022e90610847565b60405180910390fd5b600080600160009054906101000a900473ffffffffffffffffffffffffffffffffffffffff1673ffffffffffffffffffffffffffffffffffffffff168360008151811061028757610286610867565b5b6020026020010151896040516024016102a19291906108a5565b6040516020818303038152906040527fb7760c8f000000000000000000000000000000000000000000000000000000007bffffffffffffffffffffffffffffffffffffffffffffffffffffffff19166020820180517bffffffffffffffffffffffffffffffffffffffffffffffffffffffff838183161783525050505060405161032b9190610599565b6000604051808303816000865af19150503d8060008114610368576040519150601f19603f3d011682016040523d82523d6000602084013e61036d565b606091505b509150915081156103b3576040517f08c379a00000000000000000000000000000000000000000000000000000000081526004016103aa9061091a565b60405180910390fd5b6000806000838060200190518101906103cc91906109a4565b9250925092508073ffffffffffffffffffffffffffffffffffffffff166108fc479081150290604051600060405180830381858888f19350505050158015610418573d6000803e3d6000fd5b508282995099505050505050505050915091565b6000604051905090565b600080fd5b600080fd5b600073ffffffffffffffffffffffffffffffffffffffff82169050919050565b600061046b82610440565b9050919050565b61047b81610460565b811461048657600080fd5b50565b60008135905061049881610472565b92915050565b6000602082840312156104b4576104b3610436565b5b60006104c284828501610489565b91505092915050565b60008115159050919050565b6104e0816104cb565b82525050565b6000819050919050565b6104f9816104e6565b82525050565b600060408201905061051460008301856104d7565b61052160208301846104f0565b9392505050565b600081519050919050565b600081905092915050565b60005b8381101561055c578082015181840152602081019050610541565b60008484015250505050565b600061057382610528565b61057d8185610533565b935061058d81856020860161053e565b80840191505092915050565b60006105a58284610568565b915081905092915050565b600082825260208201905092915050565b7f4572726f723a2043616c6c2046756e6374696f6e204661696c65640000000000600082015250565b60006105f7601b836105b0565b9150610602826105c1565b602082019050919050565b60006020820190508181036000830152610626816105ea565b9050919050565b600080fd5b6000601f19601f8301169050919050565b7f4e487b7100000000000000000000000000000000000000000000000000000000600052604160045260246000fd5b61067b82610632565b810181811067ffffffffffffffff8211171561069a57610699610643565b5b80604052505050565b60006106ad61042c565b90506106b98282610672565b919050565b600067ffffffffffffffff8211156106d9576106d8610643565b5b602082029050602081019050919050565b600080fd5b6106f8816104e6565b811461070357600080fd5b50565b600081519050610715816106ef565b92915050565b600061072e610729846106be565b6106a3565b90508083825260208201905060208402830185811115610751576107506106ea565b5b835b8181101561077a57806107668882610706565b845260208401935050602081019050610753565b5050509392505050565b600082601f8301126107995761079861062d565b5b81516107a984826020860161071b565b91505092915050565b6000602082840312156107c8576107c7610436565b5b600082015167ffffffffffffffff8111156107e6576107e561043b565b5b6107f284828501610784565b91505092915050565b7f4572726f723a20546f6b656e204c697374204e6f742045786973740000000000600082015250565b6000610831601b836105b0565b915061083c826107fb565b602082019050919050565b6000602082019050818103600083015261086081610824565b9050919050565b7f4e487b7100000000000000000000000000000000000000000000000000000000600052603260045260246000fd5b61089f81610460565b82525050565b60006040820190506108ba60008301856104f0565b6108c76020830184610896565b9392505050565b7f4572726f723a205472616e73666572204661696c656400000000000000000000600082015250565b60006109046016836105b0565b915061090f826108ce565b602082019050919050565b60006020820190508181036000830152610933816108f7565b9050919050565b610943816104cb565b811461094e57600080fd5b50565b6000815190506109608161093a565b92915050565b600061097182610440565b9050919050565b61098181610966565b811461098c57600080fd5b50565b60008151905061099e81610978565b92915050565b6000806000606084860312156109bd576109bc610436565b5b60006109cb86828701610951565b93505060206109dc86828701610706565b92505060406109ed8682870161098f565b915050925092509256fea26469706673582212202fddf9f1350e625376c006eeff1d1ec7d39c780533286f77b14c1d75e1885e7264736f6c63430008180033a2646970667358221220c403a6167ff352f3d4b03924b509228d316d5e349335e93e173166c289bd8ffa64736f6c63430008180033",
  "linkReferences": {},
  "deployedLinkReferences": {}
}