{
  "_format": "hh-sol-artifact-1",
  "contractName": "Pool",
  "sourceName": "contracts/pool/Pool.sol",
  "abi": [
    {
      "inputs": [
        {
          "internalType": "address payable",
          "name": "_owner",
          "type": "address"
        },
        {
          "internalType": "address payable",
          "name": "_token",
          "type": "address"
        },
        {
          "internalType": "address payable",
          "name": "_target",
          "type": "address"
        },
        {
          "internalType": "address payable",
          "name": "_creator",
          "type": "address"
        },
        {
          "internalType": "uint256",
          "name": "_maxSupply",
          "type": "uint256"
        }
      ],
      "stateMutability": "nonpayable",
      "type": "constructor"
    },
    {
      "anonymous": false,
      "inputs": [
        {
          "indexed": false,
          "internalType": "address",
          "name": "owner",
          "type": "address"
        },
        {
          "indexed": false,
          "internalType": "bool",
          "name": "success",
          "type": "bool"
        }
      ],
      "name": "ChangeOwnerResult",
      "type": "event"
    },
    {
      "anonymous": false,
      "inputs": [
        {
          "indexed": false,
          "internalType": "address",
          "name": "user",
          "type": "address"
        },
        {
          "indexed": false,
          "internalType": "bool",
          "name": "success",
          "type": "bool"
        }
      ],
      "name": "MintTokenResult",
      "type": "event"
    },
    {
      "anonymous": false,
      "inputs": [
        {
          "indexed": false,
          "internalType": "address",
          "name": "token",
          "type": "address"
        }
      ],
      "name": "SetTokenAddress",
      "type": "event"
    },
    {
      "inputs": [
        {
          "internalType": "address payable",
          "name": "_address",
          "type": "address"
        }
      ],
      "name": "changeOwner",
      "outputs": [],
      "stateMutability": "nonpayable",
      "type": "function"
    },
    {
      "inputs": [],
      "name": "creatorClaim",
      "outputs": [
        {
          "internalType": "bool",
          "name": "",
          "type": "bool"
        },
        {
          "internalType": "uint256",
          "name": "",
          "type": "uint256"
        }
      ],
      "stateMutability": "nonpayable",
      "type": "function"
    },
    {
      "inputs": [],
      "name": "getCreatorShare",
      "outputs": [
        {
          "internalType": "uint256",
          "name": "",
          "type": "uint256"
        }
      ],
      "stateMutability": "view",
      "type": "function"
    },
    {
      "inputs": [],
      "name": "getMaxSupply",
      "outputs": [
        {
          "internalType": "uint256",
          "name": "",
          "type": "uint256"
        }
      ],
      "stateMutability": "view",
      "type": "function"
    },
    {
      "inputs": [],
      "name": "getMintedAmount",
      "outputs": [
        {
          "internalType": "uint256",
          "name": "",
          "type": "uint256"
        }
      ],
      "stateMutability": "view",
      "type": "function"
    },
    {
      "inputs": [],
      "name": "getTargetShare",
      "outputs": [
        {
          "internalType": "uint256",
          "name": "",
          "type": "uint256"
        }
      ],
      "stateMutability": "view",
      "type": "function"
    },
    {
      "inputs": [],
      "name": "getToken",
      "outputs": [
        {
          "internalType": "address",
          "name": "",
          "type": "address"
        }
      ],
      "stateMutability": "view",
      "type": "function"
    },
    {
      "inputs": [
        {
          "internalType": "address",
          "name": "_user",
          "type": "address"
        }
      ],
      "name": "mint",
      "outputs": [
        {
          "internalType": "bool",
          "name": "",
          "type": "bool"
        }
      ],
      "stateMutability": "nonpayable",
      "type": "function"
    },
    {
      "inputs": [
        {
          "internalType": "address",
          "name": "_token",
          "type": "address"
        }
      ],
      "name": "setTokenAddress",
      "outputs": [],
      "stateMutability": "nonpayable",
      "type": "function"
    },
    {
      "inputs": [],
      "name": "targetClaim",
      "outputs": [
        {
          "internalType": "bool",
          "name": "",
          "type": "bool"
        },
        {
          "internalType": "uint256",
          "name": "",
          "type": "uint256"
        }
      ],
      "stateMutability": "nonpayable",
      "type": "function"
    },
    {
      "stateMutability": "payable",
      "type": "receive"
    }
  ],
  "bytecode": "0x60806040523480156200001157600080fd5b50604051620010ff380380620010ff8339818101604052810190620000379190620001f9565b846000806101000a81548173ffffffffffffffffffffffffffffffffffffffff021916908373ffffffffffffffffffffffffffffffffffffffff16021790555082600160006101000a81548173ffffffffffffffffffffffffffffffffffffffff021916908373ffffffffffffffffffffffffffffffffffffffff16021790555081600260006101000a81548173ffffffffffffffffffffffffffffffffffffffff021916908373ffffffffffffffffffffffffffffffffffffffff160217905550600060058190555083600360006101000a81548173ffffffffffffffffffffffffffffffffffffffff021916908373ffffffffffffffffffffffffffffffffffffffff16021790555080600481905550505050505062000281565b600080fd5b600073ffffffffffffffffffffffffffffffffffffffff82169050919050565b6000620001868262000159565b9050919050565b620001988162000179565b8114620001a457600080fd5b50565b600081519050620001b8816200018d565b92915050565b6000819050919050565b620001d381620001be565b8114620001df57600080fd5b50565b600081519050620001f381620001c8565b92915050565b600080600080600060a0868803121562000218576200021762000154565b5b60006200022888828901620001a7565b95505060206200023b88828901620001a7565b94505060406200024e88828901620001a7565b93505060606200026188828901620001a7565b92505060806200027488828901620001e2565b9150509295509295909350565b610e6e80620002916000396000f3fe6080604052600436106100955760003560e01c80636a627842116100595780636a6278421461018657806388ab4168146101c35780639380b1cf146101ee578063a6f9dae11461021a578063b813f09314610243576100ac565b806304464921146100b157806308158358146100dc57806321df0da71461010757806326a4e8d2146101325780634c0f38c21461015b576100ac565b366100ac576100aa6100a561026f565b610277565b005b600080fd5b3480156100bd57600080fd5b506100c6610442565b6040516100d391906108e0565b60405180910390f35b3480156100e857600080fd5b506100f1610462565b6040516100fe91906108e0565b60405180910390f35b34801561011357600080fd5b5061011c610482565b604051610129919061093c565b60405180910390f35b34801561013e57600080fd5b5061015960048036038101906101549190610988565b6104ac565b005b34801561016757600080fd5b506101706105bc565b60405161017d91906108e0565b60405180910390f35b34801561019257600080fd5b506101ad60048036038101906101a89190610988565b610277565b6040516101ba91906109d0565b60405180910390f35b3480156101cf57600080fd5b506101d86105c6565b6040516101e591906108e0565b60405180910390f35b3480156101fa57600080fd5b506102036105d0565b6040516102119291906109eb565b60405180910390f35b34801561022657600080fd5b50610241600480360381019061023c9190610a52565b610677565b005b34801561024f57600080fd5b50610258610789565b6040516102669291906109eb565b60405180910390f35b600033905090565b600060055460045411156102c0576040517f08c379a00000000000000000000000000000000000000000000000000000000081526004016102b790610b02565b60405180910390fd5b600080600360009054906101000a900473ffffffffffffffffffffffffffffffffffffffff1673ffffffffffffffffffffffffffffffffffffffff168460405160240161030d919061093c565b6040516020818303038152906040527f6a627842000000000000000000000000000000000000000000000000000000007bffffffffffffffffffffffffffffffffffffffffffffffffffffffff19166020820180517bffffffffffffffffffffffffffffffffffffffffffffffffffffffff83818316178352505050506040516103979190610b93565b6000604051808303816000865af19150503d80600081146103d4576040519150601f19603f3d011682016040523d82523d6000602084013e6103d9565b606091505b509150915081156103ff576001600560008282546103f79190610bd9565b925050819055505b7f3a37a829753738d7d89a835fdcf121048d39040746b46cb40df2c8715ae49c3c8483604051610430929190610c0d565b60405180910390a18192505050919050565b600060056064476104539190610c65565b61045d9190610c96565b905090565b6000605f6064476104739190610c65565b61047d9190610c96565b905090565b6000600360009054906101000a900473ffffffffffffffffffffffffffffffffffffffff16905090565b60008054906101000a900473ffffffffffffffffffffffffffffffffffffffff1673ffffffffffffffffffffffffffffffffffffffff166104eb61026f565b73ffffffffffffffffffffffffffffffffffffffff1603610541576040517f08c379a000000000000000000000000000000000000000000000000000000000815260040161053890610d24565b60405180910390fd5b80600360006101000a81548173ffffffffffffffffffffffffffffffffffffffff021916908373ffffffffffffffffffffffffffffffffffffffff1602179055507f33a7e73920e7bb871d64f12f439f70e8d764c488da2188d67bd27ddb60205137816040516105b1919061093c565b60405180910390a150565b6000600454905090565b6000600554905090565b600080600260009054906101000a900473ffffffffffffffffffffffffffffffffffffffff1673ffffffffffffffffffffffffffffffffffffffff166108fc600560644761061e9190610c65565b6106289190610c96565b9081150290604051600060405180830381858888f19350505050158015610653573d6000803e3d6000fd5b50600160056064476106659190610c65565b61066f9190610c96565b915091509091565b60008054906101000a900473ffffffffffffffffffffffffffffffffffffffff1673ffffffffffffffffffffffffffffffffffffffff166106b661026f565b73ffffffffffffffffffffffffffffffffffffffff160361070c576040517f08c379a000000000000000000000000000000000000000000000000000000000815260040161070390610d24565b60405180910390fd5b806000806101000a81548173ffffffffffffffffffffffffffffffffffffffff021916908373ffffffffffffffffffffffffffffffffffffffff1602179055507ff0e0189256774be8c5b09e6521cefca63544c5b1c06dd8a9ed6c12a34cf85c8781600160405161077e929190610da3565b60405180910390a150565b600080600160009054906101000a900473ffffffffffffffffffffffffffffffffffffffff1673ffffffffffffffffffffffffffffffffffffffff166107cd61026f565b73ffffffffffffffffffffffffffffffffffffffff1603610823576040517f08c379a000000000000000000000000000000000000000000000000000000000815260040161081a90610e18565b60405180910390fd5b600160009054906101000a900473ffffffffffffffffffffffffffffffffffffffff1673ffffffffffffffffffffffffffffffffffffffff166108fc605f60644761086e9190610c65565b6108789190610c96565b9081150290604051600060405180830381858888f193505050501580156108a3573d6000803e3d6000fd5b506001605f6064476108b59190610c65565b6108bf9190610c96565b915091509091565b6000819050919050565b6108da816108c7565b82525050565b60006020820190506108f560008301846108d1565b92915050565b600073ffffffffffffffffffffffffffffffffffffffff82169050919050565b6000610926826108fb565b9050919050565b6109368161091b565b82525050565b6000602082019050610951600083018461092d565b92915050565b600080fd5b6109658161091b565b811461097057600080fd5b50565b6000813590506109828161095c565b92915050565b60006020828403121561099e5761099d610957565b5b60006109ac84828501610973565b91505092915050565b60008115159050919050565b6109ca816109b5565b82525050565b60006020820190506109e560008301846109c1565b92915050565b6000604082019050610a0060008301856109c1565b610a0d60208301846108d1565b9392505050565b6000610a1f826108fb565b9050919050565b610a2f81610a14565b8114610a3a57600080fd5b50565b600081359050610a4c81610a26565b92915050565b600060208284031215610a6857610a67610957565b5b6000610a7684828501610a3d565b91505092915050565b600082825260208201905092915050565b7f4572726f723a20457665727920546f6b656e20416c7265616479204d696e746560008201527f6400000000000000000000000000000000000000000000000000000000000000602082015250565b6000610aec602183610a7f565b9150610af782610a90565b604082019050919050565b60006020820190508181036000830152610b1b81610adf565b9050919050565b600081519050919050565b600081905092915050565b60005b83811015610b56578082015181840152602081019050610b3b565b60008484015250505050565b6000610b6d82610b22565b610b778185610b2d565b9350610b87818560208601610b38565b80840191505092915050565b6000610b9f8284610b62565b915081905092915050565b7f4e487b7100000000000000000000000000000000000000000000000000000000600052601160045260246000fd5b6000610be4826108c7565b9150610bef836108c7565b9250828201905080821115610c0757610c06610baa565b5b92915050565b6000604082019050610c22600083018561092d565b610c2f60208301846109c1565b9392505050565b7f4e487b7100000000000000000000000000000000000000000000000000000000600052601260045260246000fd5b6000610c70826108c7565b9150610c7b836108c7565b925082610c8b57610c8a610c36565b5b828204905092915050565b6000610ca1826108c7565b9150610cac836108c7565b9250828202610cba816108c7565b91508282048414831517610cd157610cd0610baa565b5b5092915050565b7f4572726f723a204f6e6c79204f776e6572000000000000000000000000000000600082015250565b6000610d0e601183610a7f565b9150610d1982610cd8565b602082019050919050565b60006020820190508181036000830152610d3d81610d01565b9050919050565b6000819050919050565b6000610d69610d64610d5f846108fb565b610d44565b6108fb565b9050919050565b6000610d7b82610d4e565b9050919050565b6000610d8d82610d70565b9050919050565b610d9d81610d82565b82525050565b6000604082019050610db86000830185610d94565b610dc560208301846109c1565b9392505050565b7f4572726f723a204f6e6c79205461726765740000000000000000000000000000600082015250565b6000610e02601283610a7f565b9150610e0d82610dcc565b602082019050919050565b60006020820190508181036000830152610e3181610df5565b905091905056fea2646970667358221220d38bb773b7070485e07928d1dbb310e69e69662fa8474411b4f2b6c30c8a3b9464736f6c63430008180033",
  "linkReferences": {},
  "deployedLinkReferences": {}
}