{
  "_format": "hh-sol-artifact-1",
  "contractName": "Vote",
  "sourceName": "contracts/vote/Vote.sol",
  "abi": [
    {
      "inputs": [
        {
          "internalType": "string",
          "name": "_name",
          "type": "string"
        },
        {
          "internalType": "address",
          "name": "_token",
          "type": "address"
        },
        {
          "internalType": "address",
          "name": "_creator",
          "type": "address"
        },
        {
          "internalType": "address",
          "name": "_target",
          "type": "address"
        }
      ],
      "stateMutability": "nonpayable",
      "type": "constructor"
    },
    {
      "inputs": [
        {
          "internalType": "bool",
          "name": "_value",
          "type": "bool"
        }
      ],
      "name": "checkIn",
      "outputs": [
        {
          "internalType": "bool",
          "name": "",
          "type": "bool"
        }
      ],
      "stateMutability": "nonpayable",
      "type": "function"
    },
    {
      "inputs": [],
      "name": "creator",
      "outputs": [
        {
          "internalType": "address",
          "name": "",
          "type": "address"
        }
      ],
      "stateMutability": "view",
      "type": "function"
    },
    {
      "inputs": [],
      "name": "getIsCheckIn",
      "outputs": [
        {
          "internalType": "bool",
          "name": "",
          "type": "bool"
        }
      ],
      "stateMutability": "view",
      "type": "function"
    },
    {
      "inputs": [],
      "name": "isCheckIn",
      "outputs": [
        {
          "internalType": "bool",
          "name": "",
          "type": "bool"
        }
      ],
      "stateMutability": "view",
      "type": "function"
    },
    {
      "inputs": [],
      "name": "name",
      "outputs": [
        {
          "internalType": "string",
          "name": "",
          "type": "string"
        }
      ],
      "stateMutability": "view",
      "type": "function"
    },
    {
      "inputs": [],
      "name": "target",
      "outputs": [
        {
          "internalType": "address",
          "name": "",
          "type": "address"
        }
      ],
      "stateMutability": "view",
      "type": "function"
    },
    {
      "inputs": [],
      "name": "token",
      "outputs": [
        {
          "internalType": "address",
          "name": "",
          "type": "address"
        }
      ],
      "stateMutability": "view",
      "type": "function"
    },
    {
      "inputs": [
        {
          "internalType": "address",
          "name": "_tokenAddr",
          "type": "address"
        },
        {
          "internalType": "uint256",
          "name": "_tokenId",
          "type": "uint256"
        }
      ],
      "name": "vote",
      "outputs": [],
      "stateMutability": "nonpayable",
      "type": "function"
    }
  ],
  "bytecode": "0x60806040523480156200001157600080fd5b5060405162000ff738038062000ff7833981810160405281019062000037919062000329565b836000908162000048919062000605565b5081600160006101000a81548173ffffffffffffffffffffffffffffffffffffffff021916908373ffffffffffffffffffffffffffffffffffffffff16021790555080600260006101000a81548173ffffffffffffffffffffffffffffffffffffffff021916908373ffffffffffffffffffffffffffffffffffffffff16021790555082600360006101000a81548173ffffffffffffffffffffffffffffffffffffffff021916908373ffffffffffffffffffffffffffffffffffffffff1602179055506000600360146101000a81548160ff02191690831515021790555050505050620006ec565b6000604051905090565b600080fd5b600080fd5b600080fd5b600080fd5b6000601f19601f8301169050919050565b7f4e487b7100000000000000000000000000000000000000000000000000000000600052604160045260246000fd5b6200019a826200014f565b810181811067ffffffffffffffff82111715620001bc57620001bb62000160565b5b80604052505050565b6000620001d162000131565b9050620001df82826200018f565b919050565b600067ffffffffffffffff82111562000202576200020162000160565b5b6200020d826200014f565b9050602081019050919050565b60005b838110156200023a5780820151818401526020810190506200021d565b60008484015250505050565b60006200025d6200025784620001e4565b620001c5565b9050828152602081018484840111156200027c576200027b6200014a565b5b620002898482856200021a565b509392505050565b600082601f830112620002a957620002a862000145565b5b8151620002bb84826020860162000246565b91505092915050565b600073ffffffffffffffffffffffffffffffffffffffff82169050919050565b6000620002f182620002c4565b9050919050565b6200030381620002e4565b81146200030f57600080fd5b50565b6000815190506200032381620002f8565b92915050565b600080600080608085870312156200034657620003456200013b565b5b600085015167ffffffffffffffff81111562000367576200036662000140565b5b620003758782880162000291565b9450506020620003888782880162000312565b93505060406200039b8782880162000312565b9250506060620003ae8782880162000312565b91505092959194509250565b600081519050919050565b7f4e487b7100000000000000000000000000000000000000000000000000000000600052602260045260246000fd5b600060028204905060018216806200040d57607f821691505b602082108103620004235762000422620003c5565b5b50919050565b60008190508160005260206000209050919050565b60006020601f8301049050919050565b600082821b905092915050565b6000600883026200048d7fffffffffffffffffffffffffffffffffffffffffffffffffffffffffffffffff826200044e565b6200049986836200044e565b95508019841693508086168417925050509392505050565b6000819050919050565b6000819050919050565b6000620004e6620004e0620004da84620004b1565b620004bb565b620004b1565b9050919050565b6000819050919050565b6200050283620004c5565b6200051a6200051182620004ed565b8484546200045b565b825550505050565b600090565b6200053162000522565b6200053e818484620004f7565b505050565b5b8181101562000566576200055a60008262000527565b60018101905062000544565b5050565b601f821115620005b5576200057f8162000429565b6200058a846200043e565b810160208510156200059a578190505b620005b2620005a9856200043e565b83018262000543565b50505b505050565b600082821c905092915050565b6000620005da60001984600802620005ba565b1980831691505092915050565b6000620005f58383620005c7565b9150826002028217905092915050565b6200061082620003ba565b67ffffffffffffffff8111156200062c576200062b62000160565b5b620006388254620003f4565b620006458282856200056a565b600060209050601f8311600181146200067d576000841562000668578287015190505b620006748582620005e7565b865550620006e4565b601f1984166200068d8662000429565b60005b82811015620006b75784890151825560018201915060208501945060208101905062000690565b86831015620006d75784890151620006d3601f891682620005c7565b8355505b6001600288020188555050505b505050505050565b6108fb80620006fc6000396000f3fe608060405234801561001057600080fd5b50600436106100885760003560e01c8063d446bfe51161005b578063d446bfe514610103578063d4b8399214610121578063fad386db1461013f578063fc0c546a1461016f57610088565b806302d05d3f1461008d57806306fdde03146100ab5780635f74bbde146100c95780637e876182146100e5575b600080fd5b61009561018d565b6040516100a291906104f8565b60405180910390f35b6100b36101b3565b6040516100c091906105a3565b60405180910390f35b6100e360048036038101906100de919061062c565b610241565b005b6100ed61036b565b6040516100fa9190610687565b60405180910390f35b61010b610382565b6040516101189190610687565b60405180910390f35b610129610395565b60405161013691906104f8565b60405180910390f35b610159600480360381019061015491906106ce565b6103bb565b6040516101669190610687565b60405180910390f35b610177610489565b60405161018491906104f8565b60405180910390f35b600160009054906101000a900473ffffffffffffffffffffffffffffffffffffffff1681565b600080546101c09061072a565b80601f01602080910402602001604051908101604052809291908181526020018280546101ec9061072a565b80156102395780601f1061020e57610100808354040283529160200191610239565b820191906000526020600020905b81548152906001019060200180831161021c57829003601f168201915b505050505081565b81600360009054906101000a900473ffffffffffffffffffffffffffffffffffffffff1673ffffffffffffffffffffffffffffffffffffffff168173ffffffffffffffffffffffffffffffffffffffff16036102d2576040517f08c379a00000000000000000000000000000000000000000000000000000000081526004016102c9906107a7565b60405180910390fd5b8160006004600083815260200190815260200160002060009054906101000a900460ff16905080610338576040517f08c379a000000000000000000000000000000000000000000000000000000000815260040161032f90610839565b60405180910390fd5b60016004600086815260200190815260200160002060006101000a81548160ff0219169083151502179055505050505050565b6000600360149054906101000a900460ff16905090565b600360149054906101000a900460ff1681565b600260009054906101000a900473ffffffffffffffffffffffffffffffffffffffff1681565b600080600260009054906101000a900473ffffffffffffffffffffffffffffffffffffffff1673ffffffffffffffffffffffffffffffffffffffff166103ff6104af565b73ffffffffffffffffffffffffffffffffffffffff1614610421576000610424565b60015b905080610466576040517f08c379a000000000000000000000000000000000000000000000000000000000815260040161045d906108a5565b60405180910390fd5b82600360146101000a81548160ff02191690831515021790555082915050919050565b600360009054906101000a900473ffffffffffffffffffffffffffffffffffffffff1681565b600033905090565b600073ffffffffffffffffffffffffffffffffffffffff82169050919050565b60006104e2826104b7565b9050919050565b6104f2816104d7565b82525050565b600060208201905061050d60008301846104e9565b92915050565b600081519050919050565b600082825260208201905092915050565b60005b8381101561054d578082015181840152602081019050610532565b60008484015250505050565b6000601f19601f8301169050919050565b600061057582610513565b61057f818561051e565b935061058f81856020860161052f565b61059881610559565b840191505092915050565b600060208201905081810360008301526105bd818461056a565b905092915050565b600080fd5b6105d3816104d7565b81146105de57600080fd5b50565b6000813590506105f0816105ca565b92915050565b6000819050919050565b610609816105f6565b811461061457600080fd5b50565b60008135905061062681610600565b92915050565b60008060408385031215610643576106426105c5565b5b6000610651858286016105e1565b925050602061066285828601610617565b9150509250929050565b60008115159050919050565b6106818161066c565b82525050565b600060208201905061069c6000830184610678565b92915050565b6106ab8161066c565b81146106b657600080fd5b50565b6000813590506106c8816106a2565b92915050565b6000602082840312156106e4576106e36105c5565b5b60006106f2848285016106b9565b91505092915050565b7f4e487b7100000000000000000000000000000000000000000000000000000000600052602260045260246000fd5b6000600282049050600182168061074257607f821691505b602082108103610755576107546106fb565b5b50919050565b7f4572726f723a20496e76616c696420546f6b656e204164647265737300000000600082015250565b6000610791601c8361051e565b915061079c8261075b565b602082019050919050565b600060208201905081810360008301526107c081610784565b9050919050565b7f4572726f723a20416c726561647920566f74656420576974682054686973205460008201527f6f6b656e49640000000000000000000000000000000000000000000000000000602082015250565b600061082360268361051e565b915061082e826107c7565b604082019050919050565b6000602082019050818103600083015261085281610816565b9050919050565b7f4572726f723a204f6e6c79205461726765740000000000000000000000000000600082015250565b600061088f60128361051e565b915061089a82610859565b602082019050919050565b600060208201905081810360008301526108be81610882565b905091905056fea26469706673582212202466b2fcebf6d5a6405dabd6f00e6b74ffd3bffc315f56c99bc8a85c442bb37264736f6c63430008180033",
  "linkReferences": {},
  "deployedLinkReferences": {}
}