{
  "_format": "hh-sol-artifact-1",
  "contractName": "Trade",
  "sourceName": "contracts/trade/Trade.sol",
  "abi": [
    {
      "inputs": [
        {
          "internalType": "address",
          "name": "_owner",
          "type": "address"
        },
        {
          "internalType": "address",
          "name": "_token",
          "type": "address"
        }
      ],
      "stateMutability": "nonpayable",
      "type": "constructor"
    },
    {
      "inputs": [
        {
          "internalType": "address",
          "name": "_user",
          "type": "address"
        }
      ],
      "name": "transfer",
      "outputs": [
        {
          "internalType": "bool",
          "name": "",
          "type": "bool"
        },
        {
          "internalType": "uint256",
          "name": "",
          "type": "uint256"
        }
      ],
      "stateMutability": "nonpayable",
      "type": "function"
    },
    {
      "stateMutability": "payable",
      "type": "receive"
    }
  ],
  "bytecode": "0x608060405234801561001057600080fd5b50604051610b99380380610b998339818101604052810190610032919061011d565b816000806101000a81548173ffffffffffffffffffffffffffffffffffffffff021916908373ffffffffffffffffffffffffffffffffffffffff16021790555080600160006101000a81548173ffffffffffffffffffffffffffffffffffffffff021916908373ffffffffffffffffffffffffffffffffffffffff160217905550505061015d565b600080fd5b600073ffffffffffffffffffffffffffffffffffffffff82169050919050565b60006100ea826100bf565b9050919050565b6100fa816100df565b811461010557600080fd5b50565b600081519050610117816100f1565b92915050565b60008060408385031215610134576101336100ba565b5b600061014285828601610108565b925050602061015385828601610108565b9150509250929050565b610a2d8061016c6000396000f3fe6080604052600436106100225760003560e01c80631a6952301461003e57610039565b366100395761003761003261007c565b610084565b005b600080fd5b34801561004a57600080fd5b506100656004803603810190610060919061049e565b610084565b6040516100739291906104ff565b60405180910390f35b600033905090565b600080600080600160009054906101000a900473ffffffffffffffffffffffffffffffffffffffff1673ffffffffffffffffffffffffffffffffffffffff166040516024016040516020818303038152906040527f942b765a000000000000000000000000000000000000000000000000000000007bffffffffffffffffffffffffffffffffffffffffffffffffffffffff19166020820180517bffffffffffffffffffffffffffffffffffffffffffffffffffffffff83818316178352505050506040516101539190610599565b6000604051808303816000865af19150503d8060008114610190576040519150601f19603f3d011682016040523d82523d6000602084013e610195565b606091505b509150915081156101db576040517f08c379a00000000000000000000000000000000000000000000000000000000081526004016101d29061060d565b60405180910390fd5b6000818060200190518101906101f191906107b2565b90506000815114610237576040517f08c379a000000000000000000000000000000000000000000000000000000000815260040161022e90610847565b60405180910390fd5b600080600160009054906101000a900473ffffffffffffffffffffffffffffffffffffffff1673ffffffffffffffffffffffffffffffffffffffff168360008151811061028757610286610867565b5b6020026020010151896040516024016102a19291906108a5565b6040516020818303038152906040527fb7760c8f000000000000000000000000000000000000000000000000000000007bffffffffffffffffffffffffffffffffffffffffffffffffffffffff19166020820180517bffffffffffffffffffffffffffffffffffffffffffffffffffffffff838183161783525050505060405161032b9190610599565b6000604051808303816000865af19150503d8060008114610368576040519150601f19603f3d011682016040523d82523d6000602084013e61036d565b606091505b509150915081156103b3576040517f08c379a00000000000000000000000000000000000000000000000000000000081526004016103aa9061091a565b60405180910390fd5b6000806000838060200190518101906103cc91906109a4565b9250925092508073ffffffffffffffffffffffffffffffffffffffff166108fc479081150290604051600060405180830381858888f19350505050158015610418573d6000803e3d6000fd5b508282995099505050505050505050915091565b6000604051905090565b600080fd5b600080fd5b600073ffffffffffffffffffffffffffffffffffffffff82169050919050565b600061046b82610440565b9050919050565b61047b81610460565b811461048657600080fd5b50565b60008135905061049881610472565b92915050565b6000602082840312156104b4576104b3610436565b5b60006104c284828501610489565b91505092915050565b60008115159050919050565b6104e0816104cb565b82525050565b6000819050919050565b6104f9816104e6565b82525050565b600060408201905061051460008301856104d7565b61052160208301846104f0565b9392505050565b600081519050919050565b600081905092915050565b60005b8381101561055c578082015181840152602081019050610541565b60008484015250505050565b600061057382610528565b61057d8185610533565b935061058d81856020860161053e565b80840191505092915050565b60006105a58284610568565b915081905092915050565b600082825260208201905092915050565b7f4572726f723a2043616c6c2046756e6374696f6e204661696c65640000000000600082015250565b60006105f7601b836105b0565b9150610602826105c1565b602082019050919050565b60006020820190508181036000830152610626816105ea565b9050919050565b600080fd5b6000601f19601f8301169050919050565b7f4e487b7100000000000000000000000000000000000000000000000000000000600052604160045260246000fd5b61067b82610632565b810181811067ffffffffffffffff8211171561069a57610699610643565b5b80604052505050565b60006106ad61042c565b90506106b98282610672565b919050565b600067ffffffffffffffff8211156106d9576106d8610643565b5b602082029050602081019050919050565b600080fd5b6106f8816104e6565b811461070357600080fd5b50565b600081519050610715816106ef565b92915050565b600061072e610729846106be565b6106a3565b90508083825260208201905060208402830185811115610751576107506106ea565b5b835b8181101561077a57806107668882610706565b845260208401935050602081019050610753565b5050509392505050565b600082601f8301126107995761079861062d565b5b81516107a984826020860161071b565b91505092915050565b6000602082840312156107c8576107c7610436565b5b600082015167ffffffffffffffff8111156107e6576107e561043b565b5b6107f284828501610784565b91505092915050565b7f4572726f723a20546f6b656e204c697374204e6f742045786973740000000000600082015250565b6000610831601b836105b0565b915061083c826107fb565b602082019050919050565b6000602082019050818103600083015261086081610824565b9050919050565b7f4e487b7100000000000000000000000000000000000000000000000000000000600052603260045260246000fd5b61089f81610460565b82525050565b60006040820190506108ba60008301856104f0565b6108c76020830184610896565b9392505050565b7f4572726f723a205472616e73666572204661696c656400000000000000000000600082015250565b60006109046016836105b0565b915061090f826108ce565b602082019050919050565b60006020820190508181036000830152610933816108f7565b9050919050565b610943816104cb565b811461094e57600080fd5b50565b6000815190506109608161093a565b92915050565b600061097182610440565b9050919050565b61098181610966565b811461098c57600080fd5b50565b60008151905061099e81610978565b92915050565b6000806000606084860312156109bd576109bc610436565b5b60006109cb86828701610951565b93505060206109dc86828701610706565b92505060406109ed8682870161098f565b915050925092509256fea26469706673582212202fddf9f1350e625376c006eeff1d1ec7d39c780533286f77b14c1d75e1885e7264736f6c63430008180033",
  "linkReferences": {},
  "deployedLinkReferences": {}
}